:020000000000fe
:020001000002fb
:020002000004f8
:020003000006f5
:020004000008f2
:02000500000aef
:02000600000cec
:02000700000ee9
:020008000010e6
:020009000012e3
:02000a000014e0
:02000b000016dd
:02000c000018da
:02000d00001ad7
:02000e00001cd4
:02000f00001ed1
:020010000020ce
:020011000022cb
:020012000024c8
:020013000026c5
:020014000028c2
:02001500002abf
:02001600002cbc
:02001700002eb9
:020018000030b6
:020019000032b3
:02001a000034b0
:02001b000036ad
:02001c000038aa
:02001d00003aa7
:02001e00003ca4
:02001f00003ea1
:0200200000409e
:0200210000429b
:02002200004498
:02002300004695
:02002400004892
:02002500004a8f
:02002600004c8c
:02002700004e89
:02002800005086
:02002900005283
:02002a00005480
:02002b0000567d
:02002c0000587a
:02002d00005a77
:02002e00005c74
:02002f00005e71
:0200300000606e
:0200310000626b
:02003200006468
:02003300006665
:02003400006862
:02003500006a5f
:02003600006c5c
:02003700006e59
:02003800007056
:02003900007253
:02003a00007450
:02003b0000764d
:02003c0000784a
:02003d00007a47
:02003e00007c44
:02003f00007e41
:0200400000803e
:0200410000823b
:02004200008438
:02004300008635
:02004400008832
:02004500008a2f
:02004600008c2c
:02004700008e29
:02004800009026
:02004900009223
:02004a00009420
:02004b0000961d
:02004c0000981a
:02004d00009a17
:02004e00009c14
:02004f00009e11
:0200500000a00e
:0200510000a20b
:0200520000a408
:0200530000a605
:0200540000a802
:0200550000aaff
:0200560000acfc
:0200570000aef9
:0200580000b0f6
:0200590000b2f3
:02005a0000b4f0
:02005b0000b6ed
:02005c0000b8ea
:02005d0000bae7
:02005e0000bce4
:02005f0000bee1
:0200600000c0de
:0200610000c2db
:0200620000c4d8
:0200630000c6d5
:0200640000c8d2
:0200650000cacf
:0200660000cccc
:0200670000cec9
:0200680000d0c6
:0200690000d2c3
:02006a0000d4c0
:02006b0000d6bd
:02006c0000d8ba
:02006d0000dab7
:02006e0000dcb4
:02006f0000deb1
:0200700000e0ae
:0200710000e2ab
:0200720000e4a8
:0200730000e6a5
:0200740000e8a2
:0200750000ea9f
:0200760000ec9c
:0200770000ee99
:0200780000f096
:0200790000f293
:02007a0000f490
:02007b0000f68d
:02007c0000f88a
:02007d0000fa87
:02007e0000fc84
:02007f0000fe81
:0200800001007d
:0200810001027a
:02008200010477
:02008300010674
:02008400010871
:02008500010a6e
:02008600010c6b
:02008700010e68
:02008800011065
:02008900011262
:02008a0001145f
:02008b0001165c
:02008c00011859
:02008d00011a56
:02008e00011c53
:02008f00011e50
:0200900001204d
:0200910001224a
:02009200012447
:02009300012644
:02009400012841
:02009500012a3e
:02009600012c3b
:02009700012e38
:02009800013035
:02009900013232
:02009a0001342f
:02009b0001362c
:02009c00013829
:02009d00013a26
:02009e00013c23
:02009f00013e20
:0200a00001401d
:0200a10001421a
:0200a200014417
:0200a300014614
:0200a400014811
:0200a500014a0e
:0200a600014c0b
:0200a700014e08
:0200a800015005
:0200a900015202
:0200aa000154ff
:0200ab000156fc
:0200ac000158f9
:0200ad00015af6
:0200ae00015cf3
:0200af00015ef0
:0200b0000160ed
:0200b1000162ea
:0200b2000164e7
:0200b3000166e4
:0200b4000168e1
:0200b500016ade
:0200b600016cdb
:0200b700016ed8
:0200b8000170d5
:0200b9000172d2
:0200ba000174cf
:0200bb000176cc
:0200bc000178c9
:0200bd00017ac6
:0200be00017cc3
:0200bf00017ec0
:0200c0000180bd
:0200c1000182ba
:0200c2000184b7
:0200c3000186b4
:0200c4000188b1
:0200c500018aae
:0200c600018cab
:0200c700018ea8
:0200c8000190a5
:0200c9000192a2
:0200ca0001949f
:0200cb0001969c
:0200cc00019899
:0200cd00019a96
:0200ce00019c93
:0200cf00019e90
:0200d00001a08d
:0200d10001a28a
:0200d20001a487
:0200d30001a684
:0200d40001a881
:0200d50001aa7e
:0200d60001ac7b
:0200d70001ae78
:0200d80001b075
:0200d90001b272
:0200da0001b46f
:0200db0001b66c
:0200dc0001b869
:0200dd0001ba66
:0200de0001bc63
:0200df0001be60
:0200e00001c05d
:0200e10001c25a
:0200e20001c457
:0200e30001c654
:0200e40001c851
:0200e50001ca4e
:0200e60001cc4b
:0200e70001ce48
:0200e80001d045
:0200e90001d242
:0200ea0001d43f
:0200eb0001d63c
:0200ec0001d839
:0200ed0001da36
:0200ee0001dc33
:0200ef0001de30
:0200f00001e02d
:0200f10001e22a
:0200f20001e427
:0200f30001e624
:0200f40001e821
:0200f50001ea1e
:0200f60001ec1b
:0200f70001ee18
:0200f80001f015
:0200f90001f212
:0200fa0001f40f
:0200fb0001f60c
:0200fc0001f809
:0200fd0001fa06
:0200fe0001fc03
:0200ff0001fe00
:00000001ff
